:100000000C94FE000C9416010C9416010C9416012D
:100010000C9416010C9416010C9416010C94160104
:100020000C9416010C9416010C9416010C941601F4
:100030000C9416010C9416010C9416010C941601E4
:100040000C9416010C9416010C9416010C941601D4
:100050000C9416010C9416010C9416010C941601C4
:100060000C9416010C9416010C9416010C941601B4
:100070000C9416010C9416010C9416010C941601A4
:100080000C9416010C9416010C9416010C94160194
:100090000C9416010C9416010C9416010C94160184
:1000A0000C9416010C9416010C9416010C94160174
:1000B0000C9416010C9416010C9416010C94160164
:1000C0000C9416010C9416010C9416010C94160154
:1000D0000C9416010C9416010C9416010C94160144
:1000E0000C9416010C9416010C9416010C94160134
:1000F0000C9416010C9416010C9416010C94160124
:100100000C9416010C9416010C9416010C94160113
:100110000C9416010C9416010C9416010C94160103
:100120000C9416010C9416010C9416010C941601F3
:100130000C9416010C9416010C9416010C941601E3
:100140000C9416010C9416010C9416010C941601D3
:100150000C9416010C9416010C9416010C941601C3
:100160000C9416010C9416010C9416010C941601B3
:100170000C9416010C9416010C9416010C941601A3
:100180000C9416010C9416010C9416010C94160193
:100190000C9416010C9416010C9416010C94160183
:1001A0000C9416010C9416010C9416010C94160173
:1001B0000C9416010C9416010C9416010C94160163
:1001C0000C9416010C9416010C9416010C94160153
:1001D0000C9416010C9416010C9416010C94160143
:1001E0000C9416010C9416010C9416010C94160133
:1001F0000C9416010C9416010C94160111241FBEC8
:10020000CFEFCDBFDFE3DEBF00E00CBF18BE19BEED
:100210001ABE1BBE20E2A0E0B0E201C01D92A330D6
:10022000B207E1F70E9457010C947C010C94000086
:100230000E946B01E0E0F0E21082118212820895C8
:10024000CF93DF93D09108060E946C01C82F0E94C3
:1002500056018C2F8095809344060E94750190E092
:10026000E0E0F8E0A0E0B6E021E007C018968C914D
:1002700018978D27C81301C0922F848580FFF6CF71
:1002800081E0913009F080E0DF91CF910895E0E0C6
:10029000F0E281818F5F8183089508958FEF8093CD
:1002A000020680934106089581E0089508950E9412
:1002B0004E010E946E010E94180108C00E94200198
:1002C000813021F40E9447010E944D010E94540197
:1002D0008130A1F7FFCF089580E008958FEF90E07F
:1002E00080932608909327080895E0E0F8E010A294
:0C02F00011A287E080830895F894FFCFEE
:00000001FF
