:100000000C94FE000C9416010C9416010C9416012D
:100010000C9416010C9416010C9416010C94160104
:100020000C9416010C9416010C9416010C941601F4
:100030000C9416010C9416010C9416010C941601E4
:100040000C9416010C9416010C9416010C941601D4
:100050000C9416010C9416010C9416010C941601C4
:100060000C9416010C9416010C9416010C941601B4
:100070000C9416010C9416010C9416010C941601A4
:100080000C9416010C9416010C9416010C94160194
:100090000C9416010C9416010C9416010C94160184
:1000A0000C9416010C9416010C9416010C94160174
:1000B0000C9416010C9416010C9416010C94160164
:1000C0000C9416010C9416010C9416010C94160154
:1000D0000C9416010C9416010C9416010C94160144
:1000E0000C9416010C9416010C9416010C94160134
:1000F0000C9416010C9416010C9416010C94160124
:100100000C9416010C9416010C9416010C94160113
:100110000C9416010C9416010C9416010C94160103
:100120000C9416010C9416010C9416010C941601F3
:100130000C9416010C9416010C9416010C941601E3
:100140000C9416010C9416010C9416010C941601D3
:100150000C9416010C9416010C9416010C941601C3
:100160000C9416010C9416010C9416010C941601B3
:100170000C9416010C9416010C9416010C941601A3
:100180000C9416010C9416010C9416010C94160193
:100190000C9416010C9416010C9416010C94160183
:1001A0000C9416010C9416010C9416010C94160173
:1001B0000C9416010C9416010C9416010C94160163
:1001C0000C9416010C9416010C9416010C94160153
:1001D0000C9416010C9416010C9416010C94160143
:1001E0000C9416010C9416010C9416010C94160133
:1001F0000C9416010C9416010C94160111241FBEC8
:10020000CFEFCDBFDFE3DEBF00E00CBF18BE19BEED
:100210001ABE1BBE20E2A0E0B0E201C01D92A330D6
:10022000B207E1F70E9465010C94AC010C94000048
:100230000E947D01E0E0F0E21082118212820895B6
:10024000CF93DF93D09108060E949701C82F0E9498
:1002500064018C2F8095809344060E94A501E0E004
:10026000F8E0A0E0B6E00BC018968C9118978D27A7
:10027000C81305C080E00E94640191E004C0848539
:1002800080FFF2CF90E081E0913009F080E0DF91D3
:10029000CF910895E0E0F0E281818F5F818308953E
:1002A000E0E0F0E281819281981718F48283118254
:1002B00008951092012008958FEF80930206809395
:1002C0004106089581E0089508950E945C010E940E
:1002D0009E010E9418010CC00E942001882319F081
:1002E000813021F005C00E94500102C00E944A01E5
:1002F0000E946201813081F7FFCF08958150982FCD
:100300009695282F292B922F96959695292B922FEB
:1003100092959F70822F892B282F30E0330F220B6C
:10032000322F282B822F90E0822B8F5F08958091AF
:100330002008909121080E947E0108958FEF90E09F
:1003400080932608909327080895E0E0F8E010A233
:0C03500011A287E080830895F894FFCF8D
:00000001FF
